:020000040800F2
:10000000000002203D340008C9040008CB040008A9
:10001000CD040008CF040008D1040008000000004F
:100020000000000000000000000000007131000826
:10003000D30400080000000011320008032D00085E
:100040008D3400088D3400088D3400088D3400088C
:100050008D3400088D3400088D3400088D3400087C
:100060008D3400088D3400088D3400088D3400086C
:100070008D3400088D3400088D3400088D3400085C
:100080008D3400088D3400088D3400088D3400084C
:100090008D3400088D3400088D3400088D3400083C
:1000A0008D340008D50400088D3400088D34000814
:1000B0008D3400088D3400088D3400088D3400081C
:1000C0008D3400088D3400088D3400088D3400080C
:1000D0008D3400088D3400088D3400088D340008FC
:1000E0008D3400088D340008000000008D340008B5
:1000F0008D3400088D3400088D3400088D340008DC
:100100008D3400088D3400088D3400088D340008CB
:100110008D3400088D3400088D3400088D340008BB
:100120008D3400088D3400088D3400088D340008AB
:100130008D3400088D3400088D3400088D3400089B
:1001400000000000000000000000000000000000AF
:100150008D3400088D3400088D3400088D3400087B
:100160008D3400088D3400088D3400088D3400086B
:100170008D3400088D3400088D3400080000000024
:100180008D3400088D3400088D3400088D3400084B
:100190008D3400088D3400088D3400088D3400083B
:1001A0008D3400088D3400088D34000800000000F4
:1001B0008D3400088D3400088D3400088D3400081B
:1001C0008D3400088D34000800000000000000009D
:1001D00000000000000000008D3400080000000056
:1001E000000000000000000000000000000000000F
:1001F00000000000000000008D3400088D3400086D
:100200008D3400088D340008000000008D34000893
:100210008D3400088D3400088D3400088D340008BA
:100220008D340008000000008D340008000000003C
:100230008D3400088D340008000000008D34000863
:100240008D3400088D3400088D3400088D3400088A
:100250008D3400088D3400088D3400088D3400087A
:100260008D3400088D3400088D3400088D3400086A
:100270008D3400088D3400088D3400080000000023
:100280008D3400088D3400088D3400088D3400084A
:10029000000000008D3400088D34000800000000CC
:1002A000000000008D3400088D3400088D340008F3
:1002B0008D3400088D3400088D3400088D3400081A
:0C02C0008D3400088D3400088D340008D7
:1002D00010B5054C237833B9044B13B10448AFF380
:1002E00000800123237010BD1400002000000000D6
:1002F0000435000808B5034B1BB103490348AFF3AD
:10030000008008BD0000000018000020043500082F
:1003100010B584B00024009401940294039400F07A
:1003200099F901238DF800308DF8014001941F22C6
:100330008DF8082087228DF809208DF80A408DF865
:100340000B408DF80C308DF80D308DF80E408DF887
:100350000F40684600F09CF9042000F089F904B0D1
:1003600010BD000008B50268034B9A4200D008BDDA
:1003700000F0AEFFFBE700BF0000014072B6FEE7F1
:1003800000B59DB04C22002109A803F0B3F820224B
:10039000002101A803F0AEF8022000F041FF002385
:1003A0000093204B9A6922F440429A619B6903F4BE
:1003B00040430093009B1B4B9B6913F4005FFAD0F2
:1003C000012209924FF480330A930223129313936C
:1003D000052114916E2115911692179318930823F5
:1003E000199300231A931B9309A800F081F9A8B967
:1003F0003F230193032102910023039308230493D5
:100400004023059306934FF480620792089301A856
:1004100000F05EFD20B91DB05DF804FBFFF7AEFFF4
:10042000FFF7ACFF0048025808B5FFF771FF00F076
:1004300021FFFFF7A5FF00F007F802F06FFC00F0C6
:1004400033F802F07DFCFEE784B0134BD3F8E020D4
:1004500042F00402C3F8E020D3F8E02002F00402E6
:100460000192019AD3F8E02042F08002C3F8E02024
:10047000D3F8E02002F080020292029AD3F8E02042
:1004800042F00102C3F8E020D3F8E03003F00103AA
:100490000393039B04B070470044025808B5012041
:1004A00002F0C8FCFBE7000008B5044A002104483C
:1004B00002F062FC034B186008BD00BF283500083D
:1004C0009D04000830000020FEE7FEE7FEE7FEE79F
:1004D000FEE7704708B5024800F062FF08BD00BFA4
:1004E0003400002000B583B00A4BD3F8F42042F06A
:1004F0000202C3F8F420D3F8F43003F002030193AE
:10050000019B00220F216FF0010000F05FF803B0A3
:100510005DF804FB004402580F2801D90120704700
:1005200010B58AB0044600220146192000F04EF8AA
:10053000192000F081F8174B1C60174BD3F8F020FE
:1005400042F00102C3F8F020D3F8F03003F00103C9
:100550000093009B01A902A800F038FE00F024FEE1
:1005600043000E48A0FB03239B0C013B0C480D4AA3
:10057000026040F2E732C26043600023036183609F
:1005800001F06CF810B101200AB010BD044800F071
:10059000B3FEF9E7040000200044025883DE1B4349
:1005A00034000020000001400649CB6823F4E063DA
:1005B0001B041B0C000200F4E0600343024A1A43D0
:1005C000CA60704700ED00E00000FA0500B5174B67
:1005D000DB68C3F30223C3F1070CBCF1040F28BF8F
:1005E0004FF0040C03F1040EBEF1060F14D9033BC7
:1005F0004FF0FF3E0EFA0CFC21EA0C0199400EFA76
:1006000003F322EA03031943002807DB0901C9B2F7
:10061000074B19545DF804FB0023E9E700F00F00D5
:100620000901C9B2034B1954F4E700BF00ED00E023
:1006300000E400E014ED00E0002807DB00F01F02FA
:10064000400901239340024A42F82030704700BF1E
:1006500000E100E0BFF35F8F044B5A6A22F480325E
:100660005A620022C3F89420704700BF00ED00E0FA
:1006700040F00100054BC3F894005A6A42F48032FE
:100680005A62BFF34F8FBFF36F8F704700ED00E0EA
:100690004278164BC3F898200378FBB14368134A9D
:1006A000C2F89C30017BC37A1B0643EA0173817A4E
:1006B00043EAC143417B43EA8143817B43EA4143AF
:1006C000C17B43EA0143417A43EA0123017A43EAC9
:1006D000410301780B43C2F8A0307047034B00225E
:1006E000C3F89C20C3F8A020704700BF00ED00E0D5
:1006F000002800F0D78238B50446036813F0010FD4
:1007000025D0A04A136903F03803926A102B15D044
:10071000182B0FD06368B3F5803F3FD0002B53D127
:10072000984B1A6822F480321A601A6822F48022E8
:100730001A6038E002F00302022AEBD1914B1B68E9
:1007400013F4003F03D06368002B00F0AD822368F0
:1007500013F0020F00F088808A4A1369926A13F03E
:1007600038035AD0182B55D0E368002B00F0A9802D
:1007700084490A6822F0190213430B6000F0B4FDAB
:100780000546804B1B6813F0040F40F0918000F089
:10079000ABFD401B0228F4D903208CE2794A136890
:1007A00043F48033136063682BB300F09DFD05466E
:1007B000744B1B6813F4003FC9D100F095FD401B3A
:1007C0006428F5D9032076E2B3F5A02F09D06D4B4C
:1007D0001A6822F480321A601A6822F480221A60A1
:1007E000E1E7684B1A6842F480221A601A6842F402
:1007F00080321A60D7E700F077FD0546614B1B6831
:1008000013F4003FA3D000F06FFD401B6428F5D91E
:10081000032050E212F0030FA6D15A4B1B6813F0CD
:10082000040F03D0E368002B00F04082554A1368A0
:1008300023F01903E1680B43136000F055FD0546F2
:10084000504B1B6813F0040F06D100F04DFD401B08
:100850000228F5D903202EE24A4A536823F0FE43CA
:10086000216943EA01635360236813F0100F51D0EC
:10087000444A136903F03803926A082B39D0182BC5
:1008800033D0E369002B69D03E4A136843F08003FC
:10089000136000F029FD05463A4B1B6813F4807F76
:1008A00053D100F021FD401B0228F5D9032002E2BC
:1008B000344A536823F0FE43216943EA01635360DD
:1008C000D2E7304A136823F00103136000F00CFDF7
:1008D00005462C4B1B6813F0040FC5D000F004FD37
:1008E000401B0228F5D90320E5E102F00302012AAA
:1008F000C7D1244B1B6813F4807F03D0E369802B9E
:1009000040F0D6811F4AD36823F07C53216A43EA22
:100910000163D360236813F0080F49D06369002B8B
:1009200032D0184A536F43F00103536700F0DCFCE8
:100930000546144B5B6F13F0020F39D100F0D4FC65
:10094000401B0228F5D90320B5E10E4AD36823F0F5
:100950007C53216A43EA0163D360DBE7094A1368E9
:1009600023F08003136000F0BFFC0546054B1B68B5
:1009700013F4807FCED000F0B7FC401B0228F5D9DD
:10098000032098E1004402589D4A536F23F001036D
:10099000536700F0A9FC0546994B5B6F13F0020FFB
:1009A00006D000F0A1FC401B0228F5D9032082E10B
:1009B000236813F0200F29D0A3699BB1904A1368D4
:1009C00043F48053136000F08FFC05468C4B1B688A
:1009D00013F4005F1AD100F087FC401B0228F5D900
:1009E000032068E1864A136823F48053136000F003
:1009F0007BFC0546824B1B6813F4005F06D000F0B9
:100A000073FC401B0228F5D9032054E1236813F03E
:100A1000040F21D1636A002B00F04C81784A1269DF
:100A200002F03802182A00F0F380022B75D0744AC5
:100A3000136823F08073136000F056FC0446704B7B
:100A40001B6813F0007F00F0D88000F04DFC001B05
:100A50000228F4D903202EE16A4A136843F4807314
:100A6000136000F041FC0546664B1B6813F4807F61
:100A700006D100F039FC401B6428F5D903201AE1A7
:100A8000A368012B0AD00BBB5D4B1A6F22F0010249
:100A90001A671A6F22F004021A6704E0584A136FAB
:100AA00043F001031367A36833B300F01DFC054650
:100AB000534B1B6F13F0020FACD100F015FC401B21
:100AC00041F288339842F3D90320F4E0052B09D092
:100AD0004B4B1A6F22F001021A671A6F22F00402C0
:100AE0001A67E0E7464B1A6F42F004021A671A6F62
:100AF00042F001021A67D6E700F0F6FB0546404BCC
:100B00001B6F13F0020F85D000F0EEFB401B41F28B
:100B100088339842F3D90320CDE0394A136823F093
:100B20008073136000F0E0FB0546354B1B6813F043
:100B3000007F06D000F0D8FB401B0228F5D9032027
:100B4000B9E02F4B996A304A0A40A16AE06A41EA4B
:100B500000110A439A62226B013AC2F30802616BE8
:100B60000139490289B20A43A16B0139090401F430
:100B7000FE010A43E16B0139090601F0FE410A4317
:100B80001A63DA6A22F00102DA62596B1F4A0A40DC
:100B9000A16C42EAC1025A63DA6A22F00C02216CAB
:100BA0000A43DA62DA6A22F00202616C0A43DA620C
:100BB000DA6A42F48032DA62DA6A42F40032DA62E5
:100BC000DA6A42F48022DA62DA6A42F00102DA6218
:100BD0001A6842F080721A6000F086FB0446084BE7
:100BE0001B6813F0007F06D100F07EFB001B02287B
:100BF000F5D903205FE000205DE000205BE000BF4E
:100C000000440258004802580CFCFFFF0700FFFF99
:100C100030498A6A086B012B4ED002F00303A16AA7
:100C20008B424BD1C2F30512E36A9A4248D1C0F31A
:100C30000802236B013B9A4244D1C0F34622636B06
:100C4000013B9A4240D1C0F30642A36B013B9A425A
:100C50003CD1C0F30660E36B013B984238D11D4B99
:100C60005B6BC3F3CC03A26C9A4201D1002022E05B
:100C7000184AD36A23F00103D36200F035FB05461E
:100C800000F032FBA842FBD0124A516B124B0B40D2
:100C9000A16C43EAC1035363D36A43F00103D362F7
:100CA000002008E001207047012004E0012002E05C
:100CB000012000E0002038BD0120FCE70120FAE718
:100CC0000120F8E70120F6E70120F4E70120F2E730
:100CD0000120F0E7004402580700FFFF744B1B6936
:100CE00003F03803102B00F0DE80182B10D00BB16E
:100CF000704870476E4B1B6813F0200F00F0D580D2
:100D00006B4B1868C0F3C1006B4B23FA00F07047BF
:100D100010B4674A916A01F00301946AC4F30510A4
:100D2000D36A03F0010C536BC3F3CC030CFB03F346
:100D300007EE903AF8EE677A14F47C7F00F0938027
:100D4000012965D0022900F09180E1B107EE100A77
:100D5000F8EE476A9FED596A86EE267A544B1B6B74
:100D6000C3F3080306EE903AF8EE666A9FED546A04
:100D700067EE867A76EEA77AF7EE006A77EEA67AC5
:100D800027EE277A60E0136813F0200F23D0114676
:100D90001268C2F3C102484BD34007EE103AF8EE96
:100DA000476A07EE100AB8EE476A86EE867A0B6B42
:100DB000C3F3080306EE903AF8EE666A9FED406AC8
:100DC00067EE867A76EEA77AF7EE006A77EEA67A75
:100DD00027EE277A38E007EE100AF8EE476A9FED13
:100DE000396A86EE267A324B1B6BC3F3080306EE94
:100DF000903AF8EE666A9FED326A67EE867A76EE92
:100E0000A77AF7EE006A77EEA67A27EE277A1BE03C
:100E100007EE100AF8EE476A9FED286A86EE267AFA
:100E2000234B1B6BC3F3080306EE903AF8EE666A99
:100E30009FED236A67EE867A76EEA77AF7EE006A70
:100E400077EEA67A27EE277A194B1B6BC3F346235E
:100E5000013307EE903AF8EE677AC7EE276AFCEEA8
:100E6000E67A17EE900A5DF8044B704707EE100A19
:100E7000F8EE476A9FED146A86EE267A0C4B1B6BE0
:100E8000C3F3080306EE903AF8EE666A9FED0C6A2B
:100E900067EE867A76EEA77AF7EE006A77EEA67AA4
:100EA00027EE277AD0E7094870470348704700BF0C
:100EB0000044025800093D000090D0030024744A09
:100EC000000000390024744C20BCBE4B40787D01EA
:100ED000002800F0328170B50D4604469B4B1B681C
:100EE00003F00F038B420BD2984A136823F00F03D1
:100EF0000B431360136803F00F038B4240F01F8114
:100F0000236813F0040F0CD02269914B9B6903F006
:100F100070039A4205D98E498B6923F070031A43F6
:100F20008A61236813F0080F0CD06269884BDB6973
:100F300003F070039A4205D98549CB6923F0700309
:100F40001A43CA61236813F0100F0CD0A269804BBA
:100F5000DB6903F4E0639A4205D97D49CB6923F448
:100F6000E0631A43CA61236813F0200F0CD0E269D2
:100F7000774B1B6A03F070039A4205D974490B6AD8
:100F800023F070031A430A62236813F0020F0CD097
:100F9000E2686F4B9B6903F00F039A4205D96C49D5
:100FA0008B6923F00F031A438A61236813F0010F42
:100FB00041D0674A936923F47063A1680B4393613E
:100FC0006368022B0AD0032B27D0012B2CD0604A58
:100FD000126812F0040F06D10120ADE0126812F47D
:100FE000003F00F0AE805A490A6922F0070213431D
:100FF0000B6100F079F90646554B1B6903F0380385
:101000006268B3EBC20F16D000F06EF9801B41F29C
:1010100088339842F0D903208EE04D4A126812F0CE
:10102000007FE0D1012087E0494A126812F4807FF6
:10103000D9D1012080E0236813F0020F0CD0E268C0
:10104000434B9B6903F00F039A4205D240498B69D9
:1010500023F00F031A438A613C4B1B6803F00F0314
:10106000AB420AD9394A136823F00F032B431360AC
:10107000136803F00F03AB4265D1236813F0040F2C
:101080000CD02269324B9B6903F070039A4205D25F
:101090002F498B6923F070031A438A61236813F088
:1010A000080F0CD062692A4BDB6903F070039A4287
:1010B00005D22749CB6923F070031A43CA6123681C
:1010C00013F0100F0CD0A269214BDB6903F4E0632D
:1010D0009A4205D21E49CB6923F4E0631A43CA61E0
:1010E000236813F0200F0CD0E269194B1B6A03F040
:1010F00070039A4205D216490B6A23F070031A4313
:101100000A62FFF7EBFD12498B69C3F30323114A0F
:10111000D35C03F01F03D8408B6903F00F03D35C4B
:1011200003F01F0320FA03F30B4A13600B4B186004
:101130000B4B1868FFF7F0F970BD012070470120D4
:10114000FAE70120F8E70120F6E700BF002000528F
:10115000004402584C3500080C0000200800002014
:101160000400002008B5FFF7B9FD0B4A9369C3F3EB
:1011700003230A49CB5C03F01F0320FA03F39269AF
:1011800002F00F02885C00F01F0023FA00F0044A0E
:101190001060044A136008BD004402584C35000832
:1011A0000C0000200800002008B5FFF7DBFF054B0E
:1011B000DB69C3F30223044AD35C03F01F03D84066
:1011C00008BD00BF004402584C3500083F230360AF
:1011D000114B1A6902F0070242609A6902F47062C8
:1011E00082609A6902F00F02C2609A6902F070028E
:1011F0000261DA6902F070024261DA6902F4E062C7
:1012000082611B6A03F07003C361044B1B6803F027
:101210000F030B60704700BF0044025800200052CB
:10122000134BDB6813F0040F07D1114BDB6803F09D
:10123000070383421AD00120704710B50C4AD368C7
:1012400023F007031843D06000F04EF80446084B23
:101250005B6813F4005F07D100F046F8001BB0F59F
:101260007A7FF4D9012000E0002010BD00207047F3
:101270000048025810B50320FFF796F9FFF72EFD3E
:101280000F498B69C3F303230E4AD35C03F01F039A
:10129000D8408B6903F00F03D35C03F01F0320FADF
:1012A00003F3094A1360094B18600F20FFF734F964
:1012B00010B10124204610BD0446FFF713F9F9E7E9
:1012C000004402584C3500080C00002008000020A3
:1012D000034B1B78034A11680B441360704700BF2F
:1012E0000000002080000020014B1868704700BFFC
:1012F000800000207047000090F83D30DBB2012BE9
:1013000042D1022380F83D300268D36843F00103E4
:10131000D36003681E4AB3F1804F18BF934225D0B3
:10132000A2F57C42934221D002F5806293421DD007
:1013300002F58062934219D002F57842934215D0AB
:10134000A2F56C42934211D002F5943293420DD033
:10135000A2F5C042934209D002F58062934205D0C3
:101360001A6842F001021A60002070479968094A21
:101370000A40062A18BFB2F5803F07D01A6842F02B
:1013800001021A600020704701207047002070475A
:101390000000014007000100704770477047704728
:1013A00010B5044603681A6912F0020F11D0DA680A
:1013B00012F0020F0DD06FF002021A6101230377C1
:1013C00003689B6913F0030F79D0FFF7E6FF002352
:1013D000237723681A6912F0040F12D0DA6812F02A
:1013E000040F0ED06FF004021A61022323772368E2
:1013F0009B6913F4407F68D02046FFF7CEFF00239F
:10140000237723681A6912F0080F12D0DA6812F0F5
:10141000080F0ED06FF008021A61042323772368A7
:10142000DB6913F0030F57D02046FFF7B6FF002308
:10143000237723681A6912F0100F12D0DA6812F0BD
:10144000100F0ED06FF010021A6108232377236863
:10145000DB6913F4407F46D02046FFF79EFF002350
:10146000237723681A6912F0010F03D0DA6812F0AB
:10147000010F3FD123681A6912F0800F03D0DA6898
:1014800012F0800F3DD123681A6912F4807F03D0D7
:10149000DA6812F0800F3BD123681A6912F0400F0E
:1014A00003D0DA6812F0400F39D123681A6912F0BC
:1014B000200F03D0DA6812F0200F37D110BDFFF7EC
:1014C0006BFF2046FFF76AFF81E72046FFF764FFC6
:1014D0002046FFF763FF92E72046FFF75DFF2046B7
:1014E000FFF75CFFA3E72046FFF756FF2046FFF714
:1014F00055FFB4E76FF001021A612046FEF732FF94
:10150000B8E76FF080021A61204600F0D8F8BAE719
:101510006FF480721A61204600F0D2F8BCE76FF0D9
:1015200040021A612046FFF73AFFBEE76FF0200243
:101530001A61204600F0C2F8C0E7000030B5036829
:101540003E4A904214BF4FF0000E4FF0010EB0F132
:10155000804F14BF72464EF00102AAB9384CA04227
:1015600014BF00240124374DA8420DD064B904F102
:10157000804404F58234A04214BF0024012405F500
:101580000065A84200D01CB123F070034C682343CF
:1015900062BB2B4A904214BF00220122294CA04278
:1015A00024D01ABB02F1804202F58232904214BF6D
:1015B0000022012204F50064A04217D0B2B9224AE9
:1015C000904214BF0022012204F59A34A0420DD0AB
:1015D00062B91E4A904214BF0022012204F5006441
:1015E000A04203D012B91A4A904204D123F4407C9D
:1015F000CB6843EA0C0323F080034A69134303607A
:101600008A68C2620A688262124A904214BF7346B4
:101610004EF0010363B90C4B984214BF0023012321
:1016200002F57052904203D013B90B4B984201D18E
:101630000B6903630123436130BD00BF000001401B
:1016400000080040000400400044014000E0004069
:1016500000E40040000401400048014060B310B5C0
:10166000044690F83D3013B3022384F83D30214600
:1016700051F8040BFFF762FF012384F8483084F827
:101680003E3084F83F3084F8403084F8413084F8AC
:10169000423084F8433084F8443084F8453084F88C
:1016A000463084F8473084F83D30002010BD80F883
:1016B0003C30FFF71FFED7E70120704770477047A7
:1016C00070470000224AD2F8883043F47003C2F811
:1016D0008830204B1B6803F00F03062B06D81D4AE9
:1016E000136823F00F0343F0070313601A4B1A68C3
:1016F00042F001021A6000221A611968174A0A4072
:101700001A60144B1B6813F0080F06D0114A1368B7
:1017100023F00F0343F0070313600F4B00229A617D
:10172000DA611A620E4999620E49D9620E4919634B
:101730005A639963DA6319645A64196821F4802141
:1017400019601A66094B43F2D2021A60704700BF53
:1017500000ED00E000200052004402587FEDF6EA60
:10176000000202020000FF0180020101004000525D
:1017700000F1080343604FF0FF328260C3600361F1
:1017800000230360704700230361704743684B6088
:101790009A688A6051609960086103680133036048
:1017A000704730B40D68B5F1FF3F11D000F1080368
:1017B0001C465B681A68AA42FAD963684B60996054
:1017C0008C606160086103680133036030BC70475E
:1017D0000469F2E70369416882688A604168516080
:1017E0005A68824206D0002202611A68013A1A60E1
:1017F0001868704782685A60F5E710B5044601F032
:10180000C9FCA26BE36B9A4204D0002401F0E4FC13
:10181000204610BD0124F9E710B5044601F0BAFCDA
:10182000A36B23B9012401F0D7FC204610BD00248E
:10183000F9E770B504461546866B026C5AB9036821
:101840001BB100200136A66370BD806800F0E2FF86
:101850000023A360F6E76DB9406801F03DFE226CFD
:10186000636813446360A268934219D3236863607A
:101870002846E7E7C06801F02FFE226C5142E3687A
:101880009B1AE3602268934202D2A3680B44E36090
:10189000022D01D00020D5E726B1013E0020D1E77E
:1018A0002846CFE70020CDE70346026C6AB110B5A9
:1018B0000846D9681144D9609C68A14201D31968CF
:1018C000D960D96801F008FE10BD704738B50546EB
:1018D00001F060FC95F8454064B201E0013C64B25F
:1018E000002C0ADD6B6A43B105F1240000F0E8FE2C
:1018F0000028F3D000F078FFF0E7FF2385F84530AB
:1019000001F06AFC01F046FC95F8444064B201E045
:10191000013C64B2002C0ADD2B6943B105F11000D3
:1019200000F0CEFE0028F3D000F05EFFF0E7FF23CA
:1019300085F8443001F050FC38BD38B5E0B10D46B3
:10194000044601F027FC2368E26B216C01FB0230A6
:10195000A0600020A0636360013A02FB0133E360F2
:10196000FF2384F8443084F84530FDB9236963B916
:1019700001F032FC012038BD4FF0500383F3118891
:10198000BFF36F8FBFF34F8FFEE704F1100000F03D
:1019900097FE0028ECD04FF0E0234FF08052C3F8C0
:1019A000042DBFF34F8FBFF36F8FE1E704F11000F9
:1019B000FFF7DEFE04F12400FFF7DAFED8E738B5C2
:1019C0001D46049C0B4649B92460E0632364012151
:1019D0002046FFF7B2FF84F84C5038BD2260F4E790
:1019E00040B94FF0500383F31188BFF36F8FBFF3FB
:1019F0004F8FFEE710B584B01C4683B10B1E18BF95
:101A00000123002A08BF43F001038BB94FF05003B4
:101A100083F31188BFF36F8FBFF34F8FFEE74FF053
:101A2000500383F31188BFF36F8FBFF34F8FFEE72F
:101A3000B1FA81F35B09002A18BF43F0010343B9EF
:101A40004FF0500383F31188BFF36F8FBFF34F8FB5
:101A5000FEE750230393039B502B08D04FF0500315
:101A600083F31188BFF36F8FBFF34F8FFEE7039BA4
:101A7000012384F8463000949DF81830FFF79FFF4B
:101A8000204604B010BDF0B585B0019288B10F4674
:101A90001D460446B1B1022D20D1E36B012B1DD0B0
:101AA0004FF0500383F31188BFF36F8FBFF34F8F55
:101AB000FEE74FF0500383F31188BFF36F8FBFF33E
:101AC0004F8FFEE7036C002BE5D04FF0500383F3FC
:101AD0001188BFF36F8FBFF34F8FFEE700F08AFED0
:101AE000064658B9019B002B48D04FF0500383F3B2
:101AF0001188BFF36F8FBFF34F8FFEE700263DE0E5
:101B00002A4639462046FFF794FE636A7BB948B1FE
:101B10004FF0E0234FF08052C3F8042DBFF34F8FF6
:101B2000BFF36F8F01F058FB012005B0F0BD04F149
:101B3000240000F0C5FD0028F4D04FF0E0234FF062
:101B40008052C3F8042DBFF34F8FBFF36F8FE9E7C7
:101B500001F042FB0020E8E702A800F0F7FD0126B3
:101B600019E0002384F8443021E0002384F8453054
:101B700023E02046FFF7AAFE00F082FC01F00AFBFA
:101B8000A26BE36B9A42BBD3022DB9D0019B002B11
:101B9000DED0002EE0D001F01FFB00F0D7FB01F0FB
:101BA000F9FA94F8442052B2B2F1FF3FD9D094F838
:101BB000452052B2B2F1FF3FD7D001F00DFB01A991
:101BC00002A800F0CFFDD8B92046FFF716FE002886
:101BD000CFD0019904F1100000F03EFD2046FFF740
:101BE00075FE00F04DFC0028C8D14FF0E0234FF007
:101BF0008052C3F8042DBFF34F8FBFF36F8FBDE743
:101C00002046FFF763FE00F03BFC00208DE72DE946
:101C1000F84390B10F4616461C460546B1B1022C5A
:101C200020D1EB6B012B1DD04FF0500383F31188B3
:101C3000BFF36F8FBFF34F8FFEE74FF0500383F377
:101C40001188BFF36F8FBFF34F8FFEE7036C002B3C
:101C5000E5D04FF0500383F31188BFF36F8FBFF3CC
:101C60004F8FFEE701F0BCFBEFF311894FF05003FB
:101C700083F31188BFF36F8FBFF34F8FAA6BEB6BAA
:101C80009A4206D3022C04D0002089F31188BDE8C3
:101C9000F88395F845804FFA88F8AB6B22463946B1
:101CA0002846FFF7C6FDB8F1FF3F06D008F1010353
:101CB0005BB285F845300120E7E76B6A0BB901207C
:101CC000E3E705F1240000F0FBFC18B126B1012088
:101CD0003060DAE70120D8E70120D6E7F0B585B01B
:101CE000019290B10F460446C1B100F083FD064653
:101CF00000BB019B002B5ED04FF0500383F3118893
:101D0000BFF36F8FBFF34F8FFEE74FF0500383F3A6
:101D10001188BFF36F8FBFF34F8FFEE7036C002B6B
:101D2000E3D04FF0500383F31188BFF36F8FBFF3FD
:101D30004F8FFEE700263EE039462046FFF7B4FD10
:101D4000013DA563236923B901F046FA012005B0DE
:101D5000F0BD04F1100000F0B3FC0028F4D04FF007
:101D6000E0234FF08052C3F8042DBFF34F8FBFF331
:101D70006F8FE9E701F030FA0020E8E702A800F0F1
:101D8000E5FC012621E0002384F8443029E000230B
:101D900084F845302BE02046FFF798FD00F070FBFB
:101DA00009E02046FFF792FD00F06AFB2046FFF7AE
:101DB00033FD00283FD101F0EDF9A56B002DBBD11B
:101DC000019B002BD6D0002ED8D001F005FA00F0F0
:101DD000BDFA01F0DFF994F844305BB2B3F1FF3F94
:101DE000D1D094F845305BB2B3F1FF3FCFD001F0D2
:101DF000F3F901A902A800F0B5FC0028D1D12046D2
:101E0000FFF70AFD0028C6D0019904F1240000F074
:101E100023FC2046FFF75AFD00F032FB0028CAD110
:101E20004FF0E0234FF08052C3F8042DBFF34F8FE3
:101E3000BFF36F8FBFE7002089E700000023072B67
:101E40000CD8074A52F833200AB10133F7E7044AA5
:101E500042F8331002EBC30358607047704700BF6D
:101E60008400002070B504460D46164601F092F934
:101E700094F844305BB2B3F1FF3F0DD094F8453095
:101E80005BB2B3F1FF3F0BD001F0A6F9A36B5BB1DE
:101E90002046FFF71BFD70BD002384F84430EDE7BA
:101EA000002384F84530EFE73246294604F1240048
:101EB00000F0EAFBECE70000084B1B681B6823B945
:101EC000074B4FF0FF321A607047044B1B68DB680A
:101ED000DB685A68024B1A60704700BFC8000020D8
:101EE000700500202DE9F04780460D4617469946BB
:101EF000089EDDF824A00A9C9200A521206B01F029
:101F0000F9FA236B6FF040423A4403EB820727F063
:101F10000707B5B34FF0000CBCF10F0F0BD815F845
:101F20000C2004EB0C0383F8342015F80C3013B1AB
:101F30000CF1010CF0E7002384F84330372E00D970
:101F40003726E662E66400252565201DFFF71BFCA9
:101F500004F11800FFF717FC2461C6F13806A661EA
:101F60006462656584F858504A464146384601F037
:101F7000E5F82060BAF1000F01D0CAF80040BDE8D2
:101F8000F087002384F83430D8E7000038B5002407
:101F900007E004EB840293000E481844FFF7E8FBC7
:101FA0000134372CF5D90C4D2846FFF7E1FB0B4CDB
:101FB0002046FFF7DDFB0A48FFF7DAFB0948FFF789
:101FC000D7FB0948FFF7D4FB084B1D60084B1C608A
:101FD00038BD00BFD0000020440500205805002077
:101FE0007C050020A805002094050020C8000020E2
:101FF000CC00002010B5044601F0CCF8224A13684A
:1020000001331360214B1B685BB1214B1B686BB91B
:102010001E4B1B68DA6AE36A9A4207D81B4B1C60A6
:1020200004E01A4B1C601368012B29D0194A13686D
:10203000013313606364E06A174B1B68984201D94F
:10204000154B186000EB8000211D144B03EB800042
:10205000FFF79CFB01F0C0F80D4B1B687BB10B4BED
:102060001B68DA6AE36A9A4209D24FF0E0234FF024
:102070008052C3F8042DBFF34F8FBFF36F8F10BD95
:10208000FFF784FFD2E700BF30050020C400002026
:10209000900500203C05002040050020D0000020D5
:1020A00010B5044690F8593063B1012B11D0022BC2
:1020B0000ED04FF0500383F31188BFF36F8FBFF33F
:1020C0004F8FFEE7006B00F0BDFF204600F0BAFF27
:1020D00010BD00F0B7FFFBE70F4B1B68D3B110B585
:1020E00001F058F80D4BDB68DC68201DFFF772FB30
:1020F0000B4A1368013B1360074A1368013B1360E6
:1021000001F06AF82046FFF7CBFF034B1B68002B5A
:10211000E6D110BD704700BF34050020A80500209F
:102120003005002008B5FFF7D7FF074B1B68012BD0
:10213000F9D94FF0E0234FF08052C3F8042DBFF3DC
:102140004F8FBFF36F8FEEE7D000002070B50446CD
:102150000D46194B1E68194B18680430FFF73AFBFF
:10216000B4F1FF3F14BF00230123002D08BF00235B
:102170006BB93444114B1B685C60A6420ED9104BFE
:1021800018680E4B19680431FFF70BFB70BD0B4B41
:10219000196804310B48FFF7F9FAF7E70A4B18689A
:1021A000064B19680431FFF7FCFA084B1B68A34281
:1021B000ECD9064B1C60E9E7BC050020C4000020F8
:1021C000CC00002094050020C800002070050020ED
:1021D00030B587B00B9C7CB10C9DB5B15C250495E6
:1021E000049D5C2D1AD04FF0500383F31188BFF388
:1021F0006F8FBFF34F8FFEE74FF0500383F31188CB
:10220000BFF36F8FBFF34F8FFEE74FF0500383F3A1
:102210001188BFF36F8FBFF34F8FFEE7049D0C9DB6
:102220002C63022485F8594000240394029505ACE0
:1022300001940A9C0094FFF755FE0C98FFF7DAFE14
:10224000059807B030BD2DE9F04385B007468846B4
:1022500014461E46900000F077FE00B381465C20D5
:1022600000F072FE0546B0B1C0F83090E5B1002331
:1022700085F85930039302950D9B01930C9B0093B5
:102280003346224641463846FFF72CFE2846FFF7E4
:10229000B1FE012005E0484600F0D4FEE6E74FF02D
:1022A000FF3005B0BDE8F0834FF0FF30F9E70000E4
:1022B00010B588B000240594069407AA06A905A8BD
:1022C00000F0C6FD059B0293069B019300942346F4
:1022D000079A18491848FFF77BFF184B186040B160
:1022E00000F050FB012806D0B0F1FF3F18D008B035
:1022F00010BD0020F6E74FF0500383F31188BFF3C1
:102300006F8FBFF34F8F0E4B4FF0FF321A600D4BA4
:1023100001221A600C4B00221A6000F0D5FFE6E79C
:102320004FF0500383F31188BFF36F8FBFF34F8FCC
:10233000FEE700BF5C350008252100086C05002081
:102340007005002090050020BC050020024A13689B
:1023500001331360704700BF38050020014B186837
:10236000704700BFBC050020F8B53A4B1B68002B36
:1023700069D1394B1D6801351D60C5B9374B1B68E4
:102380001B6843B14FF0500383F31188BFF36F8F85
:10239000BFF34F8FFEE7314A1168314B1868106068
:1023A0001960304A136801331360FFF785FD2E4B27
:1023B0001B68AB423DD900272C4B1B68DB6A03EB43
:1023C00083039A002A4B9B58012B00D90127294BE4
:1023D0001B68002B3CD001273AE001271F4B1B68EC
:1023E0001B6843B31D4B1B68DB68DC6863689D4258
:1023F00026D3261D3046FFF7EDF9A36A1BB104F181
:102400001800FFF7E7F9E36A1B4A1268934201D903
:10241000194A136003EB83039A00314614481044B1
:10242000FFF7B4F9E26A114B1B68DB6A9A42D4D217
:10243000D4E70027D2E70C4B4FF0FF321A60BBE71E
:10244000094A1360B8E70D4A136801331360002787
:102450003846F8BD38050020BC050020C800002023
:10246000CC0000207405002070050020C40000206E
:10247000D0000020C0050020400500207805002085
:1024800038B5354B1B6843B94FF0500383F31188BF
:10249000BFF36F8FBFF34F8FFEE700F07BFE2E4B35
:1024A0001A68013A1A601B68002B4FD12B4B1B682E
:1024B0000BB900244BE00024294B1B681BB3284BAD
:1024C000DB68DC6804F11800FFF784F9251D284655
:1024D000FFF780F9E06A234B1B68984201D9214B32
:1024E000186000EB800029461F4B03EB8000FFF7CC
:1024F0004DF9E26A1D4B1B68DB6A9A42DCD31C4B28
:1025000001221A60D8E70CB1FFF7D6FC194B1C6802
:1025100084B9174B1C68D4B14FF0E0234FF08052C0
:10252000C3F8042DBFF34F8FBFF36F8F01240EE06C
:10253000013C07D0FFF718FF0028F9D00C4B01220F
:102540001A60F5E70B4B00221A60E2E7002400F066
:1025500043FE204638BD00BF38050020300500206E
:102560007C05002040050020D0000020C400002091
:10257000C00500207805002010B5A8B10446104B16
:102580001B6843B14FF0500383F31188BFF36F8F83
:10259000BFF34F8FFEE7FFF7D9FE00212046FFF77C
:1025A000D5FDFFF76DFF48B94FF0E0234FF08052A3
:1025B000C3F8042DBFF34F8FBFF36F8F10BD00BF63
:1025C000380500201F4B1B681BB11F4B01221A60EE
:1025D00070471D4B00221A601C4B1B6803EB8301E4
:1025E0008A001B498A585AB90BB1013BF6E74FF0F4
:1025F000500383F31188BFF36F8FBFF34F8FFEE754
:1026000003EB830082000A4450684068506003EB8B
:10261000830C4FEA8C020832114488420BD003EB42
:10262000830291000A4A0A445268D168094A11603B
:10263000064A13607047406862469100044A0A44A3
:102640005060ECE738050020C00500204005002060
:10265000D0000020C400002058B110B50C46094A33
:1026600011681831FFF79DF801212046FFF76EFD34
:1026700010BD4FF0500383F31188BFF36F8FBFF38A
:102680004F8FFEE7C400002038B570B10D461446E8
:102690000A4A11681831FFF779F80CB14FF0FF358D
:1026A00021462846FFF752FD38BD4FF0500383F313
:1026B0001188BFF36F8FBFF34F8FFEE7C400002078
:1026C00038B5C368DC6824B304F118052846FFF761
:1026D00081F8184B1B682BBB251D2846FFF77AF89D
:1026E000E06A154B1B68984201D9134B186000EB48
:1026F00080002946114B03EB8000FFF747F8E26AA0
:102700000F4B1B68DB6A9A4211D901200D4B1860F0
:1027100038BD4FF0500383F31188BFF36F8FBFF3C1
:102720004F8FFEE729460848FFF730F8E7E700201B
:10273000EEE700BF3805002040050020D000002053
:10274000C4000020C00500207C050020034B1B684E
:102750000360034B1B684360704700BF7405002093
:10276000BC050020F8B5C8B10C460546F9B100F02B
:1027700011FD1B4B19686B68C81A2268B2F1FF3F44
:1027800026D0184E36682F68B74201D08B4224D924
:10279000824215D80023236001241AE04FF0500331
:1027A00083F31188BFF36F8FBFF34F8FFEE74FF0B6
:1027B000500383F31188BFF36F8FBFF34F8FFEE792
:1027C0005B1A134423602846FFF7C0FF002400E093
:1027D000002400F001FD2046F8BD0124F9E700BF08
:1027E000BC05002074050020014B01221A607047CF
:1027F000C0050020054B1B6833B1054B1B680BB1AE
:10280000002070470220704701207047900500208B
:102810003805002000283BD038B504461E4B1B6805
:10282000834208D04FF0500383F31188BFF36F8FBA
:10283000BFF34F8FFEE7036D43B94FF0500383F3AF
:102840001188BFF36F8FBFF34F8FFEE7013B036526
:10285000C16AC26C91421DD00BB1002038BD051D6C
:102860002846FEF7B7FFE06CE062C0F13803A361D1
:102870000A4B1B68984201D9084B186000EB800096
:102880002946074B03EB8000FEF780FF0120E5E7B8
:10289000002070470020E1E7C40000204005002030
:1028A000D0000020064B1A6813682BB9012303607F
:1028B00023B9D368186870470023F8E700207047F1
:1028C000C405002008B54160006191420CD8D21ABD
:1028D00083699A4201D3012008BD011D0B4B186882
:1028E000FEF75FFF0020F7E79A422CBF002201228B
:1028F000994238BF00220AB10120EDE7011D044BC7
:102900001868FEF74EFF0020E6E700BFC80500206C
:10291000C405002030B583B000F03CFC114B1B68AF
:102920001BB100F059FC03B030BD0F4D2846FEF737
:102930001FFF0E4C2046FEF71BFF0D4B1D600D4B7D
:102940001C60002300930C4B0C4A10210A20FFF757
:1029500047F8044B18600028E3D00949FFF76EFAE6
:10296000DFE700BFE80600206C060020800600209C
:10297000C4050020C805002098060020CC050020D2
:102980006435000810B588B0FFF7C4FF124B1B6810
:10299000CBB100240594069407AA06A905A800F067
:1029A00063FA059B0293069B01930223009323463F
:1029B000079A0A490A48FFF70BFC0A4B186010B146
:1029C000012008B010BD4FF0500383F31188BFF30E
:1029D0006F8FBFF34F8FFEE7E80600206C350008CD
:1029E000ED2C0008EC060020B8B19C4603461848C0
:1029F000006858B300B585B0009101920293052993
:102A00001CDCFFF7F7FE022810D000231A466946A7
:102A10000F480068FFF737F815E04FF0500383F3D5
:102A20001188BFF36F8FBFF34F8FFEE70023069A25
:102A3000694607480068FFF726F804E0002362466D
:102A40006946FFF7E4F805B05DF804FB0020704725
:102A5000E806002070B582B01B4B1B681A6862B391
:102A6000DB681E68DC68251D2846FEF7B3FE236A76
:102A70002046984794F8283013F0040FECD0A3694F
:102A800033449E4207D26360246129460E4B186886
:102A9000FEF787FEE0E7002100910B463246204614
:102AA000FFF7A2FF0028D7D14FF0500383F311881E
:102AB000BFF36F8FBFF34F8FFEE7044A10680249E0
:102AC0000860136002B070BDC4050020C805002076
:102AD00038B50546FFF742FC0446074B1B688342A6
:102AE00005D800232B60044B1C60204638BDFFF73F
:102AF000B1FF01232B60F6E79406002070B582B089
:102B000006460D4617490968C968CC68201DFEF7BE
:102B100061FE94F828C01CF0040F08D12CF0010CC1
:102B200084F828C0236A2046984702B070BDA16986
:102B300033462A4631442046FFF7C4FE0028F1D030
:102B4000002100910B4632462046FFF74DFF00283A
:102B5000E8D14FF0500383F31188BFF36F8FBFF3B9
:102B60004F8FFEE7C405002070B582B006460C46C4
:102B7000FFF7ECFB01A8FFF7ABFF019B3BBB054652
:102B8000B04228BF002C19D024B1134A1268126831
:102B9000DAB901242246711B104B1868FFF762F95D
:102BA000FFF76EFCA8B94FF0E0234FF08052C3F856
:102BB000042DBFF34F8FBFF36F8F0AE0FFF760FC68
:102BC00029463046FFF79AFF03E01C46E2E7FFF78D
:102BD00057FC02B070BD00BFC8050020E806002009
:102BE00010B588B002E0049B002B0FDA002204A984
:102BF0003D4B1868FFF772F8002873D0049B002B38
:102C0000F1DA07990698059B9847ECE7069C6369FB
:102C100013B1201DFEF7DEFD03A8FFF759FF049B4B
:102C2000092BE3D8DFE803F005050530375005052B
:102C3000303794F8283043F0010384F82830059B9E
:102C4000A169024619442046FFF73CFE0028CDD07A
:102C5000236A2046984794F8283013F0040FC5D013
:102C6000A269002100910B46059802442046FFF717
:102C7000BBFE0028BAD14FF0500383F31188BFF395
:102C80006F8FBFF34F8FFEE794F8283023F00103D6
:102C900084F82830AAE794F8283043F0010384F838
:102CA00028300599A16131B103460246014420460E
:102CB000FFF708FE9AE74FF0500383F31188BFF344
:102CC0006F8FBFF34F8FFEE794F8283013F0020F99
:102CD00004D023F0010384F8283087E7204600F071
:102CE000B1F983E708B010BDE806002000B583B055
:102CF00001A8FFF7D7FD0199FFF736FFFFF770FF37
:102D0000F6E708B54FF0E0231B69FFF773FD0128D4
:102D100000D108BD00F0AEFAFBE70000EFF3058339
:102D20002BB9064B186828B901221A6070476FF05A
:102D3000050070474FF0FF30704700BF4C0900207E
:102D4000EFF3058373B90A4B1B68012B0DD110B546
:102D50000024084BDC77064B02221A60FFF7A8FA22
:102D6000204610BD6FF0050070474FF0FF307047F0
:102D70004C09002000ED00E0F0B587B00024059478
:102D8000EFF3058474BB68B322B31568936903B984
:102D900018235C1E372C49D8546814F0010F47D112
:102DA00056696EB14FEA960C94682CB1D7685B2FC8
:102DB00002D9176907B1C6B92CB14FF0FF340EE044
:102DC0004FF0800CF0E7D4688CB9146994B14FF0DF
:102DD000FF3404E01546002418234FF0800C012C2A
:102DE0000AD0ACB1059807B0F0BD0124F7E74FF069
:102DF000FF34F4E70024F2E7146992680292019428
:102E000000930B4662462946FFF7E2F90590E9E791
:102E100005AA019200930B461FFA8CF22946FFF790
:102E200012FA0128DED000230593DBE70020DAE761
:102E30000020D8E708B5EFF3058333B908B90020BF
:102E400008BDFFF799FB0020FAE76FF00500F7E7F0
:102E5000034B0360034B0B6080231360704700BF7C
:102E6000F0080020F0060020034B0360034B0B60CA
:102E70004FF4807313607047500D002050090020FC
:102E8000124A12F0070F1ED0D11D21F00701C1F523
:102E9000705313440A460E480260002141601344F7
:102EA000083B23F007030B48036059601960991A27
:102EB00051601360084B1960084B1960084B4FF0C4
:102EC00000421A6070474FF47053E4E7B00D0020E1
:102ED000C4490020AC0D0020B8490020B4490020AE
:102EE000B0490020164B1A461B688342FBD3516839
:102EF00002EB010C844509D0416800EB010C6345ED
:102F000009D00360904219D01060704740680144B6
:102F100051601046F0E710B40A4C2468A3420BD06D
:102F20005B681944416013681B680360904200D0DD
:102F300010605DF8044B70470460F7E7704700BF0E
:102F4000C4490020AC0D002070B50546FFF7FEF91E
:102F5000364B1B68A3B1364B1B681D424ED135B1B1
:102F6000083515F0070F02D025F007050835002DAC
:102F700046D0304B1B68AB4251D32F4A146804E053
:102F8000FFF77EFFE7E722461C466368AB4202D2AA
:102F90002368002BF7D1254B1B68A34241D016684C
:102FA00008362368136063685B1B102B10D9601907
:102FB00010F0070F08D04FF0500383F31188BFF3D0
:102FC0006F8FBFF34F8FFEE743606560FFF78AFFA7
:102FD000626818490B689B1A0B60184909688B4294
:102FE00001D216490B60124B1B6813436360002328
:102FF0002360134A13680133136002E0002600E0E7
:103000000026FFF73DFA16F0070F0CD04FF05003E3
:1030100083F31188BFF36F8FBFF34F8FFEE7002656
:10302000EFE70026EDE7304670BD00BFAC0D002095
:10303000B0490020B4490020C4490020B84900200C
:10304000BC490020002834D038B50446A0F108055A
:1030500050F8043C174A1268134208D14FF050034D
:1030600083F31188BFF36F8FBFF34F8FFEE750F8E4
:10307000081C41B14FF0500383F31188BFF36F8FE9
:10308000BFF34F8FFEE723EA020340F8043CFFF74B
:103090005DF954F8041C084A13680B441360284671
:1030A000FFF720FF054A136801331360FFF7E8F9C3
:1030B00038BD7047B0490020B4490020C049002005
:1030C00082B0002301930D4B1B68B3F1FF3F08D082
:1030D0004FF0500383F31188BFF36F8FBFF34F8F0F
:1030E000FEE74FF0500383F31188BFF36F8FBFF3F8
:1030F0004F8F019B002BFCD002B0704710000020C6
:1031000008480068006880F308884FF0000080F3EA
:10311000148862B661B6BFF34F8FBFF36F8F00DFC5
:1031200000BF000008ED00E0DFF80C00016841F48A
:10313000700101607047000088ED00E04FF080737F
:1031400040F8043C21F0010140F8081C054B40F810
:103150000C3C40F8202C6FF0020340F8243C44382B
:10316000704700BFC13000080000000000000000F0
:10317000074B19680868B0E8F04F80F30988BFF37F
:103180006F8F4FF0000080F311887047AFF300801D
:10319000C40000204FF0500383F31188BFF36F8FFA
:1031A000BFF34F8F0B4A136801331360012B00D01C
:1031B00070474FF0E023D3F8043D13F0FF0FF7D032
:1031C0004FF0500383F31188BFF36F8FBFF34F8F1E
:1031D000FEE700BF10000020094B1B6843B94FF009
:1031E000500383F31188BFF36F8FBFF34F8FFEE758
:1031F000013B034A13600BB983F31188704700BF8A
:10320000100000200000000000000000000000008E
:10321000EFF30980BFF36F8F154B1A681EF0100F84
:1032200008BF20ED108A20E9F04F10602DE9090059
:103230004FF0500080F31188BFF34F8FBFF36F8FB3
:10324000FFF7C0F94FF0000080F3118809BC19683E
:103250000868B0E8F04F1EF0100F08BFB0EC108AFD
:1032600080F30988BFF36F8F704700BFAFF3008012
:10327000C400002008B54FF0500383F31188BFF35A
:103280006F8FBFF34F8FFFF76FF828B14FF0E02338
:103290004FF08052C3F8042D002383F3118808BD3A
:1032A0004FF0E022002313619361054B1B68054931
:1032B000A1FB03139B09013B536107231361704773
:1032C00008000020D34D62104FF0E023D3F8002D0A
:1032D0003D4B9A421CD04FF0E023D3F8002D3B4BDE
:1032E0009A421ED030B583B0394B1A78D2B20192CF
:1032F000FF221A701B78DBB28DF803309DF8033083
:1033000003F05003334A1370334B07221A601BE05B
:103310004FF0500383F31188BFF36F8FBFF34F8FCC
:10332000FEE74FF0500383F31188BFF36F8FBFF3B5
:103330004F8FFEE7284A1368013B13609DF8033066
:103340005B00DBB28DF803309DF8033013F0800F83
:10335000F0D1214B1B68032B08D04FF0500383F3AF
:103360001188BFF36F8FBFF34F8FFEE71B021A4A1E
:10337000136003F4E0631360019BDBB2144A137023
:103380004FF0E024D4F8203D43F47003C4F8203D0E
:10339000D4F8203D43F07043C4F8203DFFF780FF90
:1033A00000250E4B1D60FFF7BFFED4F8343F43F0FD
:1033B0004043C4F8343FFFF7A3FEFFF703F9FFF7DC
:1033C0007FFE284603B030BD71C20F4170C20F416D
:1033D00000E400E0CC490020D0490020100000208B
:1033E000EFF305830F2B0FD9114A9B5CDBB2114A17
:1033F00012789A4208D94FF0500383F31188BFF333
:103400006F8FBFF34F8FFEE74FF0E023D3F80C3DF3
:1034100003F4E063084A1268934208D94FF050035E
:1034200083F31188BFF36F8FBFF34F8FFEE77047B1
:10343000F0E300E0CC490020D0490020DFF834D090
:10344000FEF740F90C480D490D4A002302E0D4581C
:10345000C4500433C4188C42F9D30A4A0A4C0023DE
:1034600001E013600432A242FBD300F011F8FCF734
:10347000DBFF704700000220000000201400002045
:103480007C35000814000020D4490020FEE700002D
:1034900070B50D4D0D4C641BA4100026A64209D139
:1034A0000B4D0C4C00F02EF8641BA4100026A64215
:1034B00005D170BD55F8043B98470136EEE755F845
:1034C000043B98470136F2E774350008743500086C
:1034D00074350008783500080A44914200F1FF3342
:1034E00000D1704710B511F8014B03F8014F91421C
:1034F000F9D110BD02440346934200D1704703F84E
:10350000011BF9E7F8B500BFF8BC08BC9E46704740
:0C351000F8B500BFF8BC08BC9E46704730
:10351C0064656661756C745461736B001C350008CE
:10352C00000000000000000000000000000000008F
:10353C000002000018000000000000000000000065
:10354C00000000000102030401020304060708093D
:10355C0049444C4500000000546D725100000000BD
:08356C00546D722053766300D8
:04357400F502000854
:04357800D102000874
:10357C0001000000100000000090D0030090D00368
:04358C00AAAAAAAA93
:040000050800343D7E
:00000001FF
